{
    "txid": "9bb3b6a96e77b012be9e1cd244df237dfa1b24cf6be7587e880a27d9e013791c",
    "hash": "9bb3b6a96e77b012be9e1cd244df237dfa1b24cf6be7587e880a27d9e013791c",
    "version": 2,
    "size": 83,
    "vsize": 83,
    "locktime": 0,
    "vin": [
        {
            "txid": "69e9c12d30a6cd598a31ddfcaabeb9d9f0baf8938bf0ba6610beb04f589cc5ef",
            "vout": 0,
            "scriptSig": {
                "asm": "",
                "hex": ""
            },
            "sequence": 4294967293
        }
    ],
    "vout": [
        {
            "value": 0.00200000,
            "n": 0,
            "scriptPubKey": {
                "asm": "OP_HASH160 1c6fbaf46d64221e80cbae182c33ddf81b9294ac OP_EQUAL",
                "hex": "a9141c6fbaf46d64221e80cbae182c33ddf81b9294ac87",
                "reqSigs": 1,
                "type": "scripthash",
                "addresses": [
                    "VDFah8VXKvYGv8ScKjZDgTSbWh21JhXaa7"
                ]
            }
        }
    ],
    "hex": "0200000001efc59c584fb0be1066baf08b93f8baf0d9b9beaafcdd318a59cda6302dc1e9690000000000fdffffff01400d03000000000017a9141c6fbaf46d64221e80cbae182c33ddf81b9294ac8700000000"
}
