{
    "txid": "792394048bf2847d2b0799322a4267654acca5383be6c6b82d780018b94ec901",
    "hash": "792394048bf2847d2b0799322a4267654acca5383be6c6b82d780018b94ec901",
    "version": 2,
    "size": 174,
    "vsize": 174,
    "locktime": 0,
    "vin": [
        {
            "txid": "69e9c12d30a6cd598a31ddfcaabeb9d9f0baf8938bf0ba6610beb04f589cc5ef",
            "vout": 0,
            "scriptSig": {
                "asm": "",
                "hex": ""
            },
            "sequence": 4294967295
        }
    ],
    "vout": [
        {
            "value": 0.00200000,
            "n": 0,
            "scriptPubKey": {
                "asm": "OP_HASH160 71ed53322d470bb96657deb786b94f97dd46fb15 OP_EQUAL",
                "hex": "a91471ed53322d470bb96657deb786b94f97dd46fb1587",
                "reqSigs": 1,
                "type": "scripthash",
                "addresses": [
                    "VM3caubzqsnbUmGvdgF5BBEWea77zPxt63"
                ]
            }
        },
        {
            "value": 0.00000000,
            "n": 1,
            "scriptPubKey": {
                "asm": "OP_RETURN 54686973204f505f52455455524e207472616e73616374696f6e206f7574707574207761732063726561746564206279206d6f646966696564206372656174657261777472616e73616374696f6e2e",
                "hex": "6a4c4f54686973204f505f52455455524e207472616e73616374696f6e206f7574707574207761732063726561746564206279206d6f646966696564206372656174657261777472616e73616374696f6e2e",
                "type": "nulldata"
            }
        }
    ],
    "hex": "0200000001efc59c584fb0be1066baf08b93f8baf0d9b9beaafcdd318a59cda6302dc1e9690000000000ffffffff02400d03000000000017a91471ed53322d470bb96657deb786b94f97dd46fb15870000000000000000526a4c4f54686973204f505f52455455524e207472616e73616374696f6e206f7574707574207761732063726561746564206279206d6f646966696564206372656174657261777472616e73616374696f6e2e00000000"
}
