{
    "txid": "8e9fec27161c625e021948f8126e5c2400022c59def7b61f42f9988235078410",
    "hash": "8e9fec27161c625e021948f8126e5c2400022c59def7b61f42f9988235078410",
    "version": 2,
    "size": 197,
    "vsize": 197,
    "locktime": 0,
    "vin": [
        {
            "txid": "5ee62e3f7757f5fd995b2fa1bdb5b744298146098d5de92959ec4b52dc77191e",
            "vout": 1,
            "scriptSig": {
                "asm": "",
                "hex": ""
            },
            "sequence": 4294967295
        },
        {
            "txid": "3cd215c1c6b7ae33bc6266f268fd212b83860e13902b454502ce6d54448e398a",
            "vout": 25,
            "scriptSig": {
                "asm": "",
                "hex": ""
            },
            "sequence": 4294967295
        },
        {
            "txid": "0f941395005b80a61726baecebb11d7caa184a1a58246daff7dffca793ab07b8",
            "vout": 12,
            "scriptSig": {
                "asm": "",
                "hex": ""
            },
            "sequence": 4294967295
        }
    ],
    "vout": [
        {
            "value": 12.52000000,
            "n": 0,
            "scriptPubKey": {
                "asm": "OP_HASH160 71ed53322d470bb96657deb786b94f97dd46fb15 OP_EQUAL",
                "hex": "a91471ed53322d470bb96657deb786b94f97dd46fb1587",
                "reqSigs": 1,
                "type": "scripthash",
                "addresses": [
                    "VM3caubzqsnbUmGvdgF5BBEWea77zPxt63"
                ]
            }
        },
        {
            "value": 0.01000487,
            "n": 1,
            "scriptPubKey": {
                "asm": "OP_HASH160 6a2c482f4985f57e702f325816c90e3723ca81ae OP_EQUAL",
                "hex": "a9146a2c482f4985f57e702f325816c90e3723ca81ae87",
                "reqSigs": 1,
                "type": "scripthash",
                "addresses": [
                    "VLLcbhdNT2PJL9HazDA7RzeXGeVBN11NW3"
                ]
            }
        }
    ],
    "hex": "02000000031e1977dc524bec5929e95d8d0946812944b7b5bda12f5b99fdf557773f2ee65e0100000000ffffffff8a398e44546dce0245452b90130e86832b21fd68f26662bc33aeb7c6c115d23c1900000000ffffffffb807ab93a7fcdff7af6d24581a4a18aa7c1db1ebecba2617a6805b009513940f0c00000000ffffffff020001a04a0000000017a91471ed53322d470bb96657deb786b94f97dd46fb158727440f000000000017a9146a2c482f4985f57e702f325816c90e3723ca81ae8700000000"
}
